:020000040800F2
:1000000000500020D7010008D1010008D1010008EC
:10001000D1010008D1010008D10100080000000052
:10002000000000000000000000000000D1010008F6
:10003000D101000800000000D1010008D101000832
:10004000D1010008D1010008D1010008D101000848
:10005000D1010008D1010008D1010008D101000838
:10006000D1010008D1010008D1010008D101000828
:10007000D1010008D1010008D1010008D101000818
:10008000D1010008D1010008D1010008D101000808
:10009000D1010008D1010008D1010008D1010008F8
:1000A000D1010008D1010008D1010008D1010008E8
:1000B000D1010008D1010008D1010008D1010008D8
:1000C000D1010008D1010008D1010008D1010008C8
:1000D000D1010008D1010008D1010008D1010008B8
:1000E000D1010008D1010008D1010008D1010008A8
:1000F000D1010008D1010008D1010008D101000898
:10010000D1010008D1010008D1010008D101000887
:10011000D1010008D1010008D1010008D101000877
:10012000D1010008D1010008D1010008D101000867
:1001300080B584B000AF124BFB60124BBB60124B1A
:100140007B60124B3B60FB6801221A60BB681B6836
:1001500043F01002BB681A607B680D4A1A603B6866
:100160001B6843F400523B681A6000F013F83B68C8
:100170001B6823F400523B681A6000F00BF8EEE7AE
:100180000410024018100240041001400C100140FD
:100190004444244480B483B000AF00237B600DE06E
:1001A00000233B6002E03B6801333B603B684EF656
:1001B0005F229342F7DD7B6801337B607B68632BB2
:1001C000EEDD00BF00BF0C37BD4680BC704700BFEE
:1001D00080B400AFFEE780B586B000AF1A4A1B4B73
:1001E000D31A7B601A4B7B61184B3B610023FB6089
:1001F0000AE07A69531C7B613B69591C39611278AA
:100200001A70FB680133FB60FA687B689A42F0D38E
:10021000104A114BD31A3B600F4B3B610023BB606C
:1002200007E03B695A1C3A6100221A70BB6801332F
:10023000BB60BA683B689A42F3D3FFF779FF00BF0F
:100240001837BD4680BD00BF000000200000002020
:0C0250005C0200080000002000000020FC
:04000005080001D717
:00000001FF
