:020000040800F2
:1000000000000020F7010008F1010008F1010008DC
:10001000F1010008F1010008F101000800000000F2
:10002000000000000000000000000000F1010008D6
:10003000F101000800000000F1010008F1010008D2
:1000400031010008F1010008F1010008F101000888
:10005000F1010008F1010008F1010008F1010008B8
:10006000F1010008F1010008F1010008F1010008A8
:10007000F1010008F1010008F1010008F101000898
:10008000F1010008F1010008F1010008F101000888
:10009000F1010008F1010008F1010008F101000878
:1000A000F1010008F1010008F1010008F101000868
:1000B000F1010008F1010008F1010008F101000858
:1000C000F1010008F1010008F1010008F101000848
:1000D000F1010008F1010008F1010008F101000838
:1000E000F1010008F1010008F1010008F101000828
:1000F000F1010008F1010008F1010008F101000818
:10010000F1010008F1010008F1010008F101000807
:10011000F1010008F1010008F1010008F1010008F7
:10012000F1010008F1010008F1010008F1010008E7
:1001300080B400AF054B1B681A68044B1B6842F47F
:1001400000521A6000BFBD4680BC70470C00002002
:1001500080B500AF124B1B6801221A60114B1B685F
:100160001A68104B1B6842F010021A600E4B1B6895
:100170000E4A1A600E4B1B681A680D4B1B6842F43E
:1001800000521A6000F016F8094B1B681A68084BF9
:100190001B6822F400521A6000F00CF8EAE700BF76
:1001A00000000020040000200800002044442444F3
:1001B0000C00002080B483B000AF00237B600DE012
:1001C00000233B6002E03B6801333B603B684EF636
:1001D0005F229342F7DD7B6801337B607B68632B92
:1001E000EEDD00BF00BF0C37BD4680BC704700BFCE
:1001F00080B400AFFEE780B586B000AF1A4A1B4B53
:10020000D31A7B601A4B7B61184B3B610023FB6068
:100210000AE07A69531C7B613B69591C3961127889
:100220001A70FB680133FB60FA687B689A42F0D36E
:10023000104A114BD31A3B600F4B3B610023BB604C
:1002400007E03B695A1C3A6100221A70BB6801330F
:10025000BB60BA683B689A42F3D3FFF779FF00BFEF
:100260001837BD4680BD00BF1000002000000020F0
:0C0270007C02000810000020100000209C
:10027C000410024018100240041001400C10014000
:04000005080001F7F7
:00000001FF
